{"contracts/CrowdFunding.sol":{"CrowdFunding":{"abi":[{"inputs":[{"internalType":"uint256","name":"","type":"uint256"}],"name":"campaigns","outputs":[{"internalType":"address","name":"owner","type":"address"},{"internalType":"string","name":"title","type":"string"},{"internalType":"string","name":"description","type":"string"},{"internalType":"uint256","name":"target","type":"uint256"},{"internalType":"uint256","name":"amountCollected","type":"uint256"},{"internalType":"uint256","name":"deadline","type":"uint256"},{"internalType":"string","name":"image","type":"string"}],"stateMutability":"view","type":"function"},{"inputs":[{"internalType":"address","name":"_owner","type":"address"},{"internalType":"string","name":"_title","type":"string"},{"internalType":"string","name":"_description","type":"string"},{"internalType":"uint256","name":"_target","type":"uint256"},{"internalType":"uint256","name":"_deadline","type":"uint256"},{"internalType":"string","name":"_image","type":"string"}],"name":"createCampaign","outputs":[{"internalType":"uint256","name":"","type":"uint256"}],"stateMutability":"nonpayable","type":"function"},{"inputs":[{"internalType":"uint256","name":"_id","type":"uint256"}],"name":"donateToCompaign","outputs":[],"stateMutability":"payable","type":"function"},{"inputs":[],"name":"getCampaign","outputs":[{"components":[{"internalType":"address","name":"owner","type":"address"},{"internalType":"string","name":"title","type":"string"},{"internalType":"string","name":"description","type":"string"},{"internalType":"uint256","name":"target","type":"uint256"},{"internalType":"uint256","name":"amountCollected","type":"uint256"},{"internalType":"uint256","name":"deadline","type":"uint256"},{"internalType":"string","name":"image","type":"string"},{"internalType":"address[]","name":"donators","type":"address[]"},{"internalType":"uint256[]","name":"donations","type":"uint256[]"}],"internalType":"struct CrowdFunding.Campaign[]","name":"","type":"tuple[]"}],"stateMutability":"view","type":"function"},{"inputs":[{"internalType":"uint256","name":"_id","type":"uint256"}],"name":"getDonators","outputs":[{"internalType":"address[]","name":"","type":"address[]"},{"internalType":"uint256[]","name":"","type":"uint256[]"}],"stateMutability":"view","type":"function"},{"inputs":[],"name":"numberOfCompaigns","outputs":[{"internalType":"uint256","name":"","type":"uint256"}],"stateMutability":"view","type":"function"}],"evm":{"bytecode":{"linkReferences":{},"object":"6080604052600060015534801561001557600080fd5b50610ef3806100256000396000f3fe6080604052600436106100555760003560e01c80630fa91fa91461005a578063141961bc14610091578063236b8e3a146100c45780639943e3a1146100e6578063ae73c8f014610114578063de4f881814610129575b600080fd5b34801561006657600080fd5b5061007a610075366004610a05565b61013f565b604051610088929190610a59565b60405180910390f35b34801561009d57600080fd5b506100b16100ac366004610a05565b61020e565b6040516100889796959493929190610b06565b3480156100d057600080fd5b506100d96103eb565b6040516100889190610ba9565b3480156100f257600080fd5b50610106610101366004610d59565b610798565b604051908152602001610088565b610127610122366004610a05565b6108a9565b005b34801561013557600080fd5b5061010660015481565b600081815260208181526040918290206007810180548451818502810185019095528085526060948594929360080192909184918301828280156101ac57602002820191906000526020600020905b81546001600160a01b0316815260019091019060200180831161018e575b50505050509150808054806020026020016040519081016040528092919081815260200182805480156101fe57602002820191906000526020600020905b8154815260200190600101908083116101ea575b5050505050905091509150915091565b600060208190529081526040902080546001820180546001600160a01b03909216929161023a90610e12565b80601f016020809104026020016040519081016040528092919081815260200182805461026690610e12565b80156102b35780601f10610288576101008083540402835291602001916102b3565b820191906000526020600020905b81548152906001019060200180831161029657829003601f168201915b5050505050908060020180546102c890610e12565b80601f01602080910402602001604051908101604052809291908181526020018280546102f490610e12565b80156103415780601f1061031657610100808354040283529160200191610341565b820191906000526020600020905b81548152906001019060200180831161032457829003601f168201915b50505050509080600301549080600401549080600501549080600601805461036890610e12565b80601f016020809104026020016040519081016040528092919081815260200182805461039490610e12565b80156103e15780601f106103b6576101008083540402835291602001916103e1565b820191906000526020600020905b8154815290600101906020018083116103c457829003601f168201915b5050505050905087565b6060600060015467ffffffffffffffff81111561040a5761040a610cb6565b60405190808252806020026020018201604052801561049357816020015b61048060405180610120016040528060006001600160a01b0316815260200160608152602001606081526020016000815260200160008152602001600081526020016060815260200160608152602001606081525090565b8152602001906001900390816104285790505b50905060005b60015481101561079257600081815260208181526040918290208251610120810190935280546001600160a01b03168352600181018054919392849290840191906104e390610e12565b80601f016020809104026020016040519081016040528092919081815260200182805461050f90610e12565b801561055c5780601f106105315761010080835404028352916020019161055c565b820191906000526020600020905b81548152906001019060200180831161053f57829003601f168201915b5050505050815260200160028201805461057590610e12565b80601f01602080910402602001604051908101604052809291908181526020018280546105a190610e12565b80156105ee5780601f106105c3576101008083540402835291602001916105ee565b820191906000526020600020905b8154815290600101906020018083116105d157829003601f168201915b5050505050815260200160038201548152602001600482015481526020016005820154815260200160068201805461062590610e12565b80601f016020809104026020016040519081016040528092919081815260200182805461065190610e12565b801561069e5780601f106106735761010080835404028352916020019161069e565b820191906000526020600020905b81548152906001019060200180831161068157829003601f168201915b505050505081526020016007820180548060200260200160405190810160405280929190818152602001828054801561070057602002820191906000526020600020905b81546001600160a01b031681526001909101906020018083116106e2575b505050505081526020016008820180548060200260200160405190810160405280929190818152602001828054801561075857602002820191906000526020600020905b815481526020019060010190808311610744575b50505050508152505083838151811061077357610773610e47565b602002602001018190525050808061078a90610e73565b915050610499565b50919050565b60004283106107f75760405162461bcd60e51b815260206004820152602160248201527f54686520646561646c696e652073686f756c6420626520696e206675747572656044820152601760f91b606482015260840160405180910390fd5b6001805460009081526020818152604090912080546001600160a01b0319166001600160a01b038b16178155885190926108389290840191908a019061096c565b50855161084e906002830190602089019061096c565b5060038101859055600581018490558251610872906006830190602086019061096c565b50600060048201819055600180549161088a83610e73565b91905055506001805461089d9190610e8e565b98975050505050505050565b60008181526020819052604080822080549151349391926001600160a01b03169084908381818185875af1925050503d8060008114610904576040519150601f19603f3d011682016040523d82523d6000602084013e610909565b606091505b505090508015610966578282600401546109239190610ea5565b6004830155600782018054600181810183556000928352602080842090920180546001600160a01b03191633179055600885018054918201815583529120018390555b50505050565b82805461097890610e12565b90600052602060002090601f01602090048101928261099a57600085556109e0565b82601f106109b357805160ff19168380011785556109e0565b828001600101855582156109e0579182015b828111156109e05782518255916020019190600101906109c5565b506109ec9291506109f0565b5090565b5b808211156109ec57600081556001016109f1565b600060208284031215610a1757600080fd5b5035919050565b600081518084526020808501945080840160005b83811015610a4e57815187529582019590820190600101610a32565b509495945050505050565b604080825283519082018190526000906020906060840190828701845b82811015610a9b5781516001600160a01b031684529284019290840190600101610a76565b50505083810382850152610aaf8186610a1e565b9695505050505050565b6000815180845260005b81811015610adf57602081850181015186830182015201610ac3565b81811115610af1576000602083870101525b50601f01601f19169290920160200192915050565b6001600160a01b038816815260e060208201819052600090610b2a90830189610ab9565b8281036040840152610b3c8189610ab9565b90508660608401528560808401528460a084015282810360c0840152610b628185610ab9565b9a9950505050505050505050565b600081518084526020808501945080840160005b83811015610a4e5781516001600160a01b031687529582019590820190600101610b84565b60006020808301818452808551808352604092508286019150828160051b87010184880160005b83811015610ca857888303603f19018552815180516001600160a01b0316845261012088820151818a870152610c0882870182610ab9565b9150508782015185820389870152610c208282610ab9565b606084810151908801526080808501519088015260a0808501519088015260c080850151888303828a01529193509150610c5a8382610ab9565b9250505060e08083015186830382880152610c758382610b70565b925050506101008083015192508582038187015250610c948183610a1e565b968901969450505090860190600101610bd0565b509098975050505050505050565b634e487b7160e01b600052604160045260246000fd5b600082601f830112610cdd57600080fd5b813567ffffffffffffffff80821115610cf857610cf8610cb6565b604051601f8301601f19908116603f01168101908282118183101715610d2057610d20610cb6565b81604052838152866020858801011115610d3957600080fd5b836020870160208301376000602085830101528094505050505092915050565b60008060008060008060c08789031215610d7257600080fd5b86356001600160a01b0381168114610d8957600080fd5b9550602087013567ffffffffffffffff80821115610da657600080fd5b610db28a838b01610ccc565b96506040890135915080821115610dc857600080fd5b610dd48a838b01610ccc565b9550606089013594506080890135935060a0890135915080821115610df857600080fd5b50610e0589828a01610ccc565b9150509295509295509295565b600181811c90821680610e2657607f821691505b6020821081141561079257634e487b7160e01b600052602260045260246000fd5b634e487b7160e01b600052603260045260246000fd5b634e487b7160e01b600052601160045260246000fd5b6000600019821415610e8757610e87610e5d565b5060010190565b600082821015610ea057610ea0610e5d565b500390565b60008219821115610eb857610eb8610e5d565b50019056fea264697066735822122090cf658eb414c2ab616c4956bec49de961b5b381f8ae309e59c996a21f693e0364736f6c63430008090033","opcodes":"PUSH1 0x80 PUSH1 0x40 MSTORE PUSH1 0x0 PUSH1 0x1 SSTORE CALLVALUE DUP1 ISZERO PUSH2 0x15 JUMPI PUSH1 0x0 DUP1 REVERT JUMPDEST POP PUSH2 0xEF3 DUP1 PUSH2 0x25 PUSH1 0x0 CODECOPY PUSH1 0x0 RETURN INVALID PUSH1 0x80 PUSH1 0x40 MSTORE PUSH1 0x4 CALLDATASIZE LT PUSH2 0x55 JUMPI PUSH1 0x0 CALLDATALOAD PUSH1 0xE0 SHR DUP1 PUSH4 0xFA91FA9 EQ PUSH2 0x5A JUMPI DUP1 PUSH4 0x141961BC EQ PUSH2 0x91 JUMPI DUP1 PUSH4 0x236B8E3A EQ PUSH2 0xC4 JUMPI DUP1 PUSH4 0x9943E3A1 EQ PUSH2 0xE6 JUMPI DUP1 PUSH4 0xAE73C8F0 EQ PUSH2 0x114 JUMPI DUP1 PUSH4 0xDE4F8818 EQ PUSH2 0x129 JUMPI JUMPDEST PUSH1 0x0 DUP1 REVERT JUMPDEST CALLVALUE DUP1 ISZERO PUSH2 0x66 JUMPI PUSH1 0x0 DUP1 REVERT JUMPDEST POP PUSH2 0x7A PUSH2 0x75 CALLDATASIZE PUSH1 0x4 PUSH2 0xA05 JUMP JUMPDEST PUSH2 0x13F JUMP JUMPDEST PUSH1 0x40 MLOAD PUSH2 0x88 SWAP3 SWAP2 SWAP1 PUSH2 0xA59 JUMP JUMPDEST PUSH1 0x40 MLOAD DUP1 SWAP2 SUB SWAP1 RETURN JUMPDEST CALLVALUE DUP1 ISZERO PUSH2 0x9D JUMPI PUSH1 0x0 DUP1 REVERT JUMPDEST POP PUSH2 0xB1 PUSH2 0xAC CALLDATASIZE PUSH1 0x4 PUSH2 0xA05 JUMP JUMPDEST PUSH2 0x20E JUMP JUMPDEST PUSH1 0x40 MLOAD PUSH2 0x88 SWAP8 SWAP7 SWAP6 SWAP5 SWAP4 SWAP3 SWAP2 SWAP1 PUSH2 0xB06 JUMP JUMPDEST CALLVALUE DUP1 ISZERO PUSH2 0xD0 JUMPI PUSH1 0x0 DUP1 REVERT JUMPDEST POP PUSH2 0xD9 PUSH2 0x3EB JUMP JUMPDEST PUSH1 0x40 MLOAD PUSH2 0x88 SWAP2 SWAP1 PUSH2 0xBA9 JUMP JUMPDEST CALLVALUE DUP1 ISZERO PUSH2 0xF2 JUMPI PUSH1 0x0 DUP1 REVERT JUMPDEST POP PUSH2 0x106 PUSH2 0x101 CALLDATASIZE PUSH1 0x4 PUSH2 0xD59 JUMP JUMPDEST PUSH2 0x798 JUMP JUMPDEST PUSH1 0x40 MLOAD SWAP1 DUP2 MSTORE PUSH1 0x20 ADD PUSH2 0x88 JUMP JUMPDEST PUSH2 0x127 PUSH2 0x122 CALLDATASIZE PUSH1 0x4 PUSH2 0xA05 JUMP JUMPDEST PUSH2 0x8A9 JUMP JUMPDEST STOP JUMPDEST CALLVALUE DUP1 ISZERO PUSH2 0x135 JUMPI PUSH1 0x0 DUP1 REVERT JUMPDEST POP PUSH2 0x106 PUSH1 0x1 SLOAD DUP2 JUMP JUMPDEST PUSH1 0x0 DUP2 DUP2 MSTORE PUSH1 0x20 DUP2 DUP2 MSTORE PUSH1 0x40 SWAP2 DUP3 SWAP1 KECCAK256 PUSH1 0x7 DUP2 ADD DUP1 SLOAD DUP5 MLOAD DUP2 DUP6 MUL DUP2 ADD DUP6 ADD SWAP1 SWAP6 MSTORE DUP1 DUP6 MSTORE PUSH1 0x60 SWAP5 DUP6 SWAP5 SWAP3 SWAP4 PUSH1 0x8 ADD SWAP3 SWAP1 SWAP2 DUP5 SWAP2 DUP4 ADD DUP3 DUP3 DUP1 ISZERO PUSH2 0x1AC JUMPI PUSH1 0x20 MUL DUP3 ADD SWAP2 SWAP1 PUSH1 0x0 MSTORE PUSH1 0x20 PUSH1 0x0 KECCAK256 SWAP1 JUMPDEST DUP2 SLOAD PUSH1 0x1 PUSH1 0x1 PUSH1 0xA0 SHL SUB AND DUP2 MSTORE PUSH1 0x1 SWAP1 SWAP2 ADD SWAP1 PUSH1 0x20 ADD DUP1 DUP4 GT PUSH2 0x18E JUMPI JUMPDEST POP POP POP POP POP SWAP2 POP DUP1 DUP1 SLOAD DUP1 PUSH1 0x20 MUL PUSH1 0x20 ADD PUSH1 0x40 MLOAD SWAP1 DUP2 ADD PUSH1 0x40 MSTORE DUP1 SWAP3 SWAP2 SWAP1 DUP2 DUP2 MSTORE PUSH1 0x20 ADD DUP3 DUP1 SLOAD DUP1 ISZERO PUSH2 0x1FE JUMPI PUSH1 0x20 MUL DUP3 ADD SWAP2 SWAP1 PUSH1 0x0 MSTORE PUSH1 0x20 PUSH1 0x0 KECCAK256 SWAP1 JUMPDEST DUP2 SLOAD DUP2 MSTORE PUSH1 0x20 ADD SWAP1 PUSH1 0x1 ADD SWAP1 DUP1 DUP4 GT PUSH2 0x1EA JUMPI JUMPDEST POP POP POP POP POP SWAP1 POP SWAP2 POP SWAP2 POP SWAP2 POP SWAP2 JUMP JUMPDEST PUSH1 0x0 PUSH1 0x20 DUP2 SWAP1 MSTORE SWAP1 DUP2 MSTORE PUSH1 0x40 SWAP1 KECCAK256 DUP1 SLOAD PUSH1 0x1 DUP3 ADD DUP1 SLOAD PUSH1 0x1 PUSH1 0x1 PUSH1 0xA0 SHL SUB SWAP1 SWAP3 AND SWAP3 SWAP2 PUSH2 0x23A SWAP1 PUSH2 0xE12 JUMP JUMPDEST DUP1 PUSH1 0x1F ADD PUSH1 0x20 DUP1 SWAP2 DIV MUL PUSH1 0x20 ADD PUSH1 0x40 MLOAD SWAP1 DUP2 ADD PUSH1 0x40 MSTORE DUP1 SWAP3 SWAP2 SWAP1 DUP2 DUP2 MSTORE PUSH1 0x20 ADD DUP3 DUP1 SLOAD PUSH2 0x266 SWAP1 PUSH2 0xE12 JUMP JUMPDEST DUP1 ISZERO PUSH2 0x2B3 JUMPI DUP1 PUSH1 0x1F LT PUSH2 0x288 JUMPI PUSH2 0x100 DUP1 DUP4 SLOAD DIV MUL DUP4 MSTORE SWAP2 PUSH1 0x20 ADD SWAP2 PUSH2 0x2B3 JUMP JUMPDEST DUP3 ADD SWAP2 SWAP1 PUSH1 0x0 MSTORE PUSH1 0x20 PUSH1 0x0 KECCAK256 SWAP1 JUMPDEST DUP2 SLOAD DUP2 MSTORE SWAP1 PUSH1 0x1 ADD SWAP1 PUSH1 0x20 ADD DUP1 DUP4 GT PUSH2 0x296 JUMPI DUP3 SWAP1 SUB PUSH1 0x1F AND DUP3 ADD SWAP2 JUMPDEST POP POP POP POP POP SWAP1 DUP1 PUSH1 0x2 ADD DUP1 SLOAD PUSH2 0x2C8 SWAP1 PUSH2 0xE12 JUMP JUMPDEST DUP1 PUSH1 0x1F ADD PUSH1 0x20 DUP1 SWAP2 DIV MUL PUSH1 0x20 ADD PUSH1 0x40 MLOAD SWAP1 DUP2 ADD PUSH1 0x40 MSTORE DUP1 SWAP3 SWAP2 SWAP1 DUP2 DUP2 MSTORE PUSH1 0x20 ADD DUP3 DUP1 SLOAD PUSH2 0x2F4 SWAP1 PUSH2 0xE12 JUMP JUMPDEST DUP1 ISZERO PUSH2 0x341 JUMPI DUP1 PUSH1 0x1F LT PUSH2 0x316 JUMPI PUSH2 0x100 DUP1 DUP4 SLOAD DIV MUL DUP4 MSTORE SWAP2 PUSH1 0x20 ADD SWAP2 PUSH2 0x341 JUMP JUMPDEST DUP3 ADD SWAP2 SWAP1 PUSH1 0x0 MSTORE PUSH1 0x20 PUSH1 0x0 KECCAK256 SWAP1 JUMPDEST DUP2 SLOAD DUP2 MSTORE SWAP1 PUSH1 0x1 ADD SWAP1 PUSH1 0x20 ADD DUP1 DUP4 GT PUSH2 0x324 JUMPI DUP3 SWAP1 SUB PUSH1 0x1F AND DUP3 ADD SWAP2 JUMPDEST POP POP POP POP POP SWAP1 DUP1 PUSH1 0x3 ADD SLOAD SWAP1 DUP1 PUSH1 0x4 ADD SLOAD SWAP1 DUP1 PUSH1 0x5 ADD SLOAD SWAP1 DUP1 PUSH1 0x6 ADD DUP1 SLOAD PUSH2 0x368 SWAP1 PUSH2 0xE12 JUMP JUMPDEST DUP1 PUSH1 0x1F ADD PUSH1 0x20 DUP1 SWAP2 DIV MUL PUSH1 0x20 ADD PUSH1 0x40 MLOAD SWAP1 DUP2 ADD PUSH1 0x40 MSTORE DUP1 SWAP3 SWAP2 SWAP1 DUP2 DUP2 MSTORE PUSH1 0x20 ADD DUP3 DUP1 SLOAD PUSH2 0x394 SWAP1 PUSH2 0xE12 JUMP JUMPDEST DUP1 ISZERO PUSH2 0x3E1 JUMPI DUP1 PUSH1 0x1F LT PUSH2 0x3B6 JUMPI PUSH2 0x100 DUP1 DUP4 SLOAD DIV MUL DUP4 MSTORE SWAP2 PUSH1 0x20 ADD SWAP2 PUSH2 0x3E1 JUMP JUMPDEST DUP3 ADD SWAP2 SWAP1 PUSH1 0x0 MSTORE PUSH1 0x20 PUSH1 0x0 KECCAK256 SWAP1 JUMPDEST DUP2 SLOAD DUP2 MSTORE SWAP1 PUSH1 0x1 ADD SWAP1 PUSH1 0x20 ADD DUP1 DUP4 GT PUSH2 0x3C4 JUMPI DUP3 SWAP1 SUB PUSH1 0x1F AND DUP3 ADD SWAP2 JUMPDEST POP POP POP POP POP SWAP1 POP DUP8 JUMP JUMPDEST PUSH1 0x60 PUSH1 0x0 PUSH1 0x1 SLOAD PUSH8 0xFFFFFFFFFFFFFFFF DUP2 GT ISZERO PUSH2 0x40A JUMPI PUSH2 0x40A PUSH2 0xCB6 JUMP JUMPDEST PUSH1 0x40 MLOAD SWAP1 DUP1 DUP3 MSTORE DUP1 PUSH1 0x20 MUL PUSH1 0x20 ADD DUP3 ADD PUSH1 0x40 MSTORE DUP1 ISZERO PUSH2 0x493 JUMPI DUP2 PUSH1 0x20 ADD JUMPDEST PUSH2 0x480 PUSH1 0x40 MLOAD DUP1 PUSH2 0x120 ADD PUSH1 0x40 MSTORE DUP1 PUSH1 0x0 PUSH1 0x1 PUSH1 0x1 PUSH1 0xA0 SHL SUB AND DUP2 MSTORE PUSH1 0x20 ADD PUSH1 0x60 DUP2 MSTORE PUSH1 0x20 ADD PUSH1 0x60 DUP2 MSTORE PUSH1 0x20 ADD PUSH1 0x0 DUP2 MSTORE PUSH1 0x20 ADD PUSH1 0x0 DUP2 MSTORE PUSH1 0x20 ADD PUSH1 0x0 DUP2 MSTORE PUSH1 0x20 ADD PUSH1 0x60 DUP2 MSTORE PUSH1 0x20 ADD PUSH1 0x60 DUP2 MSTORE PUSH1 0x20 ADD PUSH1 0x60 DUP2 MSTORE POP SWAP1 JUMP JUMPDEST DUP2 MSTORE PUSH1 0x20 ADD SWAP1 PUSH1 0x1 SWAP1 SUB SWAP1 DUP2 PUSH2 0x428 JUMPI SWAP1 POP JUMPDEST POP SWAP1 POP PUSH1 0x0 JUMPDEST PUSH1 0x1 SLOAD DUP2 LT ISZERO PUSH2 0x792 JUMPI PUSH1 0x0 DUP2 DUP2 MSTORE PUSH1 0x20 DUP2 DUP2 MSTORE PUSH1 0x40 SWAP2 DUP3 SWAP1 KECCAK256 DUP3 MLOAD PUSH2 0x120 DUP2 ADD SWAP1 SWAP4 MSTORE DUP1 SLOAD PUSH1 0x1 PUSH1 0x1 PUSH1 0xA0 SHL SUB AND DUP4 MSTORE PUSH1 0x1 DUP2 ADD DUP1 SLOAD SWAP2 SWAP4 SWAP3 DUP5 SWAP3 SWAP1 DUP5 ADD SWAP2 SWAP1 PUSH2 0x4E3 SWAP1 PUSH2 0xE12 JUMP JUMPDEST DUP1 PUSH1 0x1F ADD PUSH1 0x20 DUP1 SWAP2 DIV MUL PUSH1 0x20 ADD PUSH1 0x40 MLOAD SWAP1 DUP2 ADD PUSH1 0x40 MSTORE DUP1 SWAP3 SWAP2 SWAP1 DUP2 DUP2 MSTORE PUSH1 0x20 ADD DUP3 DUP1 SLOAD PUSH2 0x50F SWAP1 PUSH2 0xE12 JUMP JUMPDEST DUP1 ISZERO PUSH2 0x55C JUMPI DUP1 PUSH1 0x1F LT PUSH2 0x531 JUMPI PUSH2 0x100 DUP1 DUP4 SLOAD DIV MUL DUP4 MSTORE SWAP2 PUSH1 0x20 ADD SWAP2 PUSH2 0x55C JUMP JUMPDEST DUP3 ADD SWAP2 SWAP1 PUSH1 0x0 MSTORE PUSH1 0x20 PUSH1 0x0 KECCAK256 SWAP1 JUMPDEST DUP2 SLOAD DUP2 MSTORE SWAP1 PUSH1 0x1 ADD SWAP1 PUSH1 0x20 ADD DUP1 DUP4 GT PUSH2 0x53F JUMPI DUP3 SWAP1 SUB PUSH1 0x1F AND DUP3 ADD SWAP2 JUMPDEST POP POP POP POP POP DUP2 MSTORE PUSH1 0x20 ADD PUSH1 0x2 DUP3 ADD DUP1 SLOAD PUSH2 0x575 SWAP1 PUSH2 0xE12 JUMP JUMPDEST DUP1 PUSH1 0x1F ADD PUSH1 0x20 DUP1 SWAP2 DIV MUL PUSH1 0x20 ADD PUSH1 0x40 MLOAD SWAP1 DUP2 ADD PUSH1 0x40 MSTORE DUP1 SWAP3 SWAP2 SWAP1 DUP2 DUP2 MSTORE PUSH1 0x20 ADD DUP3 DUP1 SLOAD PUSH2 0x5A1 SWAP1 PUSH2 0xE12 JUMP JUMPDEST DUP1 ISZERO PUSH2 0x5EE JUMPI DUP1 PUSH1 0x1F LT PUSH2 0x5C3 JUMPI PUSH2 0x100 DUP1 DUP4 SLOAD DIV MUL DUP4 MSTORE SWAP2 PUSH1 0x20 ADD SWAP2 PUSH2 0x5EE JUMP JUMPDEST DUP3 ADD SWAP2 SWAP1 PUSH1 0x0 MSTORE PUSH1 0x20 PUSH1 0x0 KECCAK256 SWAP1 JUMPDEST DUP2 SLOAD DUP2 MSTORE SWAP1 PUSH1 0x1 ADD SWAP1 PUSH1 0x20 ADD DUP1 DUP4 GT PUSH2 0x5D1 JUMPI DUP3 SWAP1 SUB PUSH1 0x1F AND DUP3 ADD SWAP2 JUMPDEST POP POP POP POP POP DUP2 MSTORE PUSH1 0x20 ADD PUSH1 0x3 DUP3 ADD SLOAD DUP2 MSTORE PUSH1 0x20 ADD PUSH1 0x4 DUP3 ADD SLOAD DUP2 MSTORE PUSH1 0x20 ADD PUSH1 0x5 DUP3 ADD SLOAD DUP2 MSTORE PUSH1 0x20 ADD PUSH1 0x6 DUP3 ADD DUP1 SLOAD PUSH2 0x625 SWAP1 PUSH2 0xE12 JUMP JUMPDEST DUP1 PUSH1 0x1F ADD PUSH1 0x20 DUP1 SWAP2 DIV MUL PUSH1 0x20 ADD PUSH1 0x40 MLOAD SWAP1 DUP2 ADD PUSH1 0x40 MSTORE DUP1 SWAP3 SWAP2 SWAP1 DUP2 DUP2 MSTORE PUSH1 0x20 ADD DUP3 DUP1 SLOAD PUSH2 0x651 SWAP1 PUSH2 0xE12 JUMP JUMPDEST DUP1 ISZERO PUSH2 0x69E JUMPI DUP1 PUSH1 0x1F LT PUSH2 0x673 JUMPI PUSH2 0x100 DUP1 DUP4 SLOAD DIV MUL DUP4 MSTORE SWAP2 PUSH1 0x20 ADD SWAP2 PUSH2 0x69E JUMP JUMPDEST DUP3 ADD SWAP2 SWAP1 PUSH1 0x0 MSTORE PUSH1 0x20 PUSH1 0x0 KECCAK256 SWAP1 JUMPDEST DUP2 SLOAD DUP2 MSTORE SWAP1 PUSH1 0x1 ADD SWAP1 PUSH1 0x20 ADD DUP1 DUP4 GT PUSH2 0x681 JUMPI DUP3 SWAP1 SUB PUSH1 0x1F AND DUP3 ADD SWAP2 JUMPDEST POP POP POP POP POP DUP2 MSTORE PUSH1 0x20 ADD PUSH1 0x7 DUP3 ADD DUP1 SLOAD DUP1 PUSH1 0x20 MUL PUSH1 0x20 ADD PUSH1 0x40 MLOAD SWAP1 DUP2 ADD PUSH1 0x40 MSTORE DUP1 SWAP3 SWAP2 SWAP1 DUP2 DUP2 MSTORE PUSH1 0x20 ADD DUP3 DUP1 SLOAD DUP1 ISZERO PUSH2 0x700 JUMPI PUSH1 0x20 MUL DUP3 ADD SWAP2 SWAP1 PUSH1 0x0 MSTORE PUSH1 0x20 PUSH1 0x0 KECCAK256 SWAP1 JUMPDEST DUP2 SLOAD PUSH1 0x1 PUSH1 0x1 PUSH1 0xA0 SHL SUB AND DUP2 MSTORE PUSH1 0x1 SWAP1 SWAP2 ADD SWAP1 PUSH1 0x20 ADD DUP1 DUP4 GT PUSH2 0x6E2 JUMPI JUMPDEST POP POP POP POP POP DUP2 MSTORE PUSH1 0x20 ADD PUSH1 0x8 DUP3 ADD DUP1 SLOAD DUP1 PUSH1 0x20 MUL PUSH1 0x20 ADD PUSH1 0x40 MLOAD SWAP1 DUP2 ADD PUSH1 0x40 MSTORE DUP1 SWAP3 SWAP2 SWAP1 DUP2 DUP2 MSTORE PUSH1 0x20 ADD DUP3 DUP1 SLOAD DUP1 ISZERO PUSH2 0x758 JUMPI PUSH1 0x20 MUL DUP3 ADD SWAP2 SWAP1 PUSH1 0x0 MSTORE PUSH1 0x20 PUSH1 0x0 KECCAK256 SWAP1 JUMPDEST DUP2 SLOAD DUP2 MSTORE PUSH1 0x20 ADD SWAP1 PUSH1 0x1 ADD SWAP1 DUP1 DUP4 GT PUSH2 0x744 JUMPI JUMPDEST POP POP POP POP POP DUP2 MSTORE POP POP DUP4 DUP4 DUP2 MLOAD DUP2 LT PUSH2 0x773 JUMPI PUSH2 0x773 PUSH2 0xE47 JUMP JUMPDEST PUSH1 0x20 MUL PUSH1 0x20 ADD ADD DUP2 SWAP1 MSTORE POP POP DUP1 DUP1 PUSH2 0x78A SWAP1 PUSH2 0xE73 JUMP JUMPDEST SWAP2 POP POP PUSH2 0x499 JUMP JUMPDEST POP SWAP2 SWAP1 POP JUMP JUMPDEST PUSH1 0x0 TIMESTAMP DUP4 LT PUSH2 0x7F7 JUMPI PUSH1 0x40 MLOAD PUSH3 0x461BCD PUSH1 0xE5 SHL DUP2 MSTORE PUSH1 0x20 PUSH1 0x4 DUP3 ADD MSTORE PUSH1 0x21 PUSH1 0x24 DUP3 ADD MSTORE PUSH32 0x54686520646561646C696E652073686F756C6420626520696E20667574757265 PUSH1 0x44 DUP3 ADD MSTORE PUSH1 0x17 PUSH1 0xF9 SHL PUSH1 0x64 DUP3 ADD MSTORE PUSH1 0x84 ADD PUSH1 0x40 MLOAD DUP1 SWAP2 SUB SWAP1 REVERT JUMPDEST PUSH1 0x1 DUP1 SLOAD PUSH1 0x0 SWAP1 DUP2 MSTORE PUSH1 0x20 DUP2 DUP2 MSTORE PUSH1 0x40 SWAP1 SWAP2 KECCAK256 DUP1 SLOAD PUSH1 0x1 PUSH1 0x1 PUSH1 0xA0 SHL SUB NOT AND PUSH1 0x1 PUSH1 0x1 PUSH1 0xA0 SHL SUB DUP12 AND OR DUP2 SSTORE DUP9 MLOAD SWAP1 SWAP3 PUSH2 0x838 SWAP3 SWAP1 DUP5 ADD SWAP2 SWAP1 DUP11 ADD SWAP1 PUSH2 0x96C JUMP JUMPDEST POP DUP6 MLOAD PUSH2 0x84E SWAP1 PUSH1 0x2 DUP4 ADD SWAP1 PUSH1 0x20 DUP10 ADD SWAP1 PUSH2 0x96C JUMP JUMPDEST POP PUSH1 0x3 DUP2 ADD DUP6 SWAP1 SSTORE PUSH1 0x5 DUP2 ADD DUP5 SWAP1 SSTORE DUP3 MLOAD PUSH2 0x872 SWAP1 PUSH1 0x6 DUP4 ADD SWAP1 PUSH1 0x20 DUP7 ADD SWAP1 PUSH2 0x96C JUMP JUMPDEST POP PUSH1 0x0 PUSH1 0x4 DUP3 ADD DUP2 SWAP1 SSTORE PUSH1 0x1 DUP1 SLOAD SWAP2 PUSH2 0x88A DUP4 PUSH2 0xE73 JUMP JUMPDEST SWAP2 SWAP1 POP SSTORE POP PUSH1 0x1 DUP1 SLOAD PUSH2 0x89D SWAP2 SWAP1 PUSH2 0xE8E JUMP JUMPDEST SWAP9 SWAP8 POP POP POP POP POP POP POP POP JUMP JUMPDEST PUSH1 0x0 DUP2 DUP2 MSTORE PUSH1 0x20 DUP2 SWAP1 MSTORE PUSH1 0x40 DUP1 DUP3 KECCAK256 DUP1 SLOAD SWAP2 MLOAD CALLVALUE SWAP4 SWAP2 SWAP3 PUSH1 0x1 PUSH1 0x1 PUSH1 0xA0 SHL SUB AND SWAP1 DUP5 SWAP1 DUP4 DUP2 DUP2 DUP2 DUP6 DUP8 GAS CALL SWAP3 POP POP POP RETURNDATASIZE DUP1 PUSH1 0x0 DUP2 EQ PUSH2 0x904 JUMPI PUSH1 0x40 MLOAD SWAP2 POP PUSH1 0x1F NOT PUSH1 0x3F RETURNDATASIZE ADD AND DUP3 ADD PUSH1 0x40 MSTORE RETURNDATASIZE DUP3 MSTORE RETURNDATASIZE PUSH1 0x0 PUSH1 0x20 DUP5 ADD RETURNDATACOPY PUSH2 0x909 JUMP JUMPDEST PUSH1 0x60 SWAP2 POP JUMPDEST POP POP SWAP1 POP DUP1 ISZERO PUSH2 0x966 JUMPI DUP3 DUP3 PUSH1 0x4 ADD SLOAD PUSH2 0x923 SWAP2 SWAP1 PUSH2 0xEA5 JUMP JUMPDEST PUSH1 0x4 DUP4 ADD SSTORE PUSH1 0x7 DUP3 ADD DUP1 SLOAD PUSH1 0x1 DUP2 DUP2 ADD DUP4 SSTORE PUSH1 0x0 SWAP3 DUP4 MSTORE PUSH1 0x20 DUP1 DUP5 KECCAK256 SWAP1 SWAP3 ADD DUP1 SLOAD PUSH1 0x1 PUSH1 0x1 PUSH1 0xA0 SHL SUB NOT AND CALLER OR SWAP1 SSTORE PUSH1 0x8 DUP6 ADD DUP1 SLOAD SWAP2 DUP3 ADD DUP2 SSTORE DUP4 MSTORE SWAP2 KECCAK256 ADD DUP4 SWAP1 SSTORE JUMPDEST POP POP POP POP JUMP JUMPDEST DUP3 DUP1 SLOAD PUSH2 0x978 SWAP1 PUSH2 0xE12 JUMP JUMPDEST SWAP1 PUSH1 0x0 MSTORE PUSH1 0x20 PUSH1 0x0 KECCAK256 SWAP1 PUSH1 0x1F ADD PUSH1 0x20 SWAP1 DIV DUP2 ADD SWAP3 DUP3 PUSH2 0x99A JUMPI PUSH1 0x0 DUP6 SSTORE PUSH2 0x9E0 JUMP JUMPDEST DUP3 PUSH1 0x1F LT PUSH2 0x9B3 JUMPI DUP1 MLOAD PUSH1 0xFF NOT AND DUP4 DUP1 ADD OR DUP6 SSTORE PUSH2 0x9E0 JUMP JUMPDEST DUP3 DUP1 ADD PUSH1 0x1 ADD DUP6 SSTORE DUP3 ISZERO PUSH2 0x9E0 JUMPI SWAP2 DUP3 ADD JUMPDEST DUP3 DUP2 GT ISZERO PUSH2 0x9E0 JUMPI DUP3 MLOAD DUP3 SSTORE SWAP2 PUSH1 0x20 ADD SWAP2 SWAP1 PUSH1 0x1 ADD SWAP1 PUSH2 0x9C5 JUMP JUMPDEST POP PUSH2 0x9EC SWAP3 SWAP2 POP PUSH2 0x9F0 JUMP JUMPDEST POP SWAP1 JUMP JUMPDEST JUMPDEST DUP1 DUP3 GT ISZERO PUSH2 0x9EC JUMPI PUSH1 0x0 DUP2 SSTORE PUSH1 0x1 ADD PUSH2 0x9F1 JUMP JUMPDEST PUSH1 0x0 PUSH1 0x20 DUP3 DUP5 SUB SLT ISZERO PUSH2 0xA17 JUMPI PUSH1 0x0 DUP1 REVERT JUMPDEST POP CALLDATALOAD SWAP2 SWAP1 POP JUMP JUMPDEST PUSH1 0x0 DUP2 MLOAD DUP1 DUP5 MSTORE PUSH1 0x20 DUP1 DUP6 ADD SWAP5 POP DUP1 DUP5 ADD PUSH1 0x0 JUMPDEST DUP4 DUP2 LT ISZERO PUSH2 0xA4E JUMPI DUP2 MLOAD DUP8 MSTORE SWAP6 DUP3 ADD SWAP6 SWAP1 DUP3 ADD SWAP1 PUSH1 0x1 ADD PUSH2 0xA32 JUMP JUMPDEST POP SWAP5 SWAP6 SWAP5 POP POP POP POP POP JUMP JUMPDEST PUSH1 0x40 DUP1 DUP3 MSTORE DUP4 MLOAD SWAP1 DUP3 ADD DUP2 SWAP1 MSTORE PUSH1 0x0 SWAP1 PUSH1 0x20 SWAP1 PUSH1 0x60 DUP5 ADD SWAP1 DUP3 DUP8 ADD DUP5 JUMPDEST DUP3 DUP2 LT ISZERO PUSH2 0xA9B JUMPI DUP2 MLOAD PUSH1 0x1 PUSH1 0x1 PUSH1 0xA0 SHL SUB AND DUP5 MSTORE SWAP3 DUP5 ADD SWAP3 SWAP1 DUP5 ADD SWAP1 PUSH1 0x1 ADD PUSH2 0xA76 JUMP JUMPDEST POP POP POP DUP4 DUP2 SUB DUP3 DUP6 ADD MSTORE PUSH2 0xAAF DUP2 DUP7 PUSH2 0xA1E JUMP JUMPDEST SWAP7 SWAP6 POP POP POP POP POP POP JUMP JUMPDEST PUSH1 0x0 DUP2 MLOAD DUP1 DUP5 MSTORE PUSH1 0x0 JUMPDEST DUP2 DUP2 LT ISZERO PUSH2 0xADF JUMPI PUSH1 0x20 DUP2 DUP6 ADD DUP2 ADD MLOAD DUP7 DUP4 ADD DUP3 ADD MSTORE ADD PUSH2 0xAC3 JUMP JUMPDEST DUP2 DUP2 GT ISZERO PUSH2 0xAF1 JUMPI PUSH1 0x0 PUSH1 0x20 DUP4 DUP8 ADD ADD MSTORE JUMPDEST POP PUSH1 0x1F ADD PUSH1 0x1F NOT AND SWAP3 SWAP1 SWAP3 ADD PUSH1 0x20 ADD SWAP3 SWAP2 POP POP JUMP JUMPDEST PUSH1 0x1 PUSH1 0x1 PUSH1 0xA0 SHL SUB DUP9 AND DUP2 MSTORE PUSH1 0xE0 PUSH1 0x20 DUP3 ADD DUP2 SWAP1 MSTORE PUSH1 0x0 SWAP1 PUSH2 0xB2A SWAP1 DUP4 ADD DUP10 PUSH2 0xAB9 JUMP JUMPDEST DUP3 DUP2 SUB PUSH1 0x40 DUP5 ADD MSTORE PUSH2 0xB3C DUP2 DUP10 PUSH2 0xAB9 JUMP JUMPDEST SWAP1 POP DUP7 PUSH1 0x60 DUP5 ADD MSTORE DUP6 PUSH1 0x80 DUP5 ADD MSTORE DUP5 PUSH1 0xA0 DUP5 ADD MSTORE DUP3 DUP2 SUB PUSH1 0xC0 DUP5 ADD MSTORE PUSH2 0xB62 DUP2 DUP6 PUSH2 0xAB9 JUMP JUMPDEST SWAP11 SWAP10 POP POP POP POP POP POP POP POP POP POP JUMP JUMPDEST PUSH1 0x0 DUP2 MLOAD DUP1 DUP5 MSTORE PUSH1 0x20 DUP1 DUP6 ADD SWAP5 POP DUP1 DUP5 ADD PUSH1 0x0 JUMPDEST DUP4 DUP2 LT ISZERO PUSH2 0xA4E JUMPI DUP2 MLOAD PUSH1 0x1 PUSH1 0x1 PUSH1 0xA0 SHL SUB AND DUP8 MSTORE SWAP6 DUP3 ADD SWAP6 SWAP1 DUP3 ADD SWAP1 PUSH1 0x1 ADD PUSH2 0xB84 JUMP JUMPDEST PUSH1 0x0 PUSH1 0x20 DUP1 DUP4 ADD DUP2 DUP5 MSTORE DUP1 DUP6 MLOAD DUP1 DUP4 MSTORE PUSH1 0x40 SWAP3 POP DUP3 DUP7 ADD SWAP2 POP DUP3 DUP2 PUSH1 0x5 SHL DUP8 ADD ADD DUP5 DUP9 ADD PUSH1 0x0 JUMPDEST DUP4 DUP2 LT ISZERO PUSH2 0xCA8 JUMPI DUP9 DUP4 SUB PUSH1 0x3F NOT ADD DUP6 MSTORE DUP2 MLOAD DUP1 MLOAD PUSH1 0x1 PUSH1 0x1 PUSH1 0xA0 SHL SUB AND DUP5 MSTORE PUSH2 0x120 DUP9 DUP3 ADD MLOAD DUP2 DUP11 DUP8 ADD MSTORE PUSH2 0xC08 DUP3 DUP8 ADD DUP3 PUSH2 0xAB9 JUMP JUMPDEST SWAP2 POP POP DUP8 DUP3 ADD MLOAD DUP6 DUP3 SUB DUP10 DUP8 ADD MSTORE PUSH2 0xC20 DUP3 DUP3 PUSH2 0xAB9 JUMP JUMPDEST PUSH1 0x60 DUP5 DUP2 ADD MLOAD SWAP1 DUP9 ADD MSTORE PUSH1 0x80 DUP1 DUP6 ADD MLOAD SWAP1 DUP9 ADD MSTORE PUSH1 0xA0 DUP1 DUP6 ADD MLOAD SWAP1 DUP9 ADD MSTORE PUSH1 0xC0 DUP1 DUP6 ADD MLOAD DUP9 DUP4 SUB DUP3 DUP11 ADD MSTORE SWAP2 SWAP4 POP SWAP2 POP PUSH2 0xC5A DUP4 DUP3 PUSH2 0xAB9 JUMP JUMPDEST SWAP3 POP POP POP PUSH1 0xE0 DUP1 DUP4 ADD MLOAD DUP7 DUP4 SUB DUP3 DUP9 ADD MSTORE PUSH2 0xC75 DUP4 DUP3 PUSH2 0xB70 JUMP JUMPDEST SWAP3 POP POP POP PUSH2 0x100 DUP1 DUP4 ADD MLOAD SWAP3 POP DUP6 DUP3 SUB DUP2 DUP8 ADD MSTORE POP PUSH2 0xC94 DUP2 DUP4 PUSH2 0xA1E JUMP JUMPDEST SWAP7 DUP10 ADD SWAP7 SWAP5 POP POP POP SWAP1 DUP7 ADD SWAP1 PUSH1 0x1 ADD PUSH2 0xBD0 JUMP JUMPDEST POP SWAP1 SWAP9 SWAP8 POP POP POP POP POP POP POP POP JUMP JUMPDEST PUSH4 0x4E487B71 PUSH1 0xE0 SHL PUSH1 0x0 MSTORE PUSH1 0x41 PUSH1 0x4 MSTORE PUSH1 0x24 PUSH1 0x0 REVERT JUMPDEST PUSH1 0x0 DUP3 PUSH1 0x1F DUP4 ADD SLT PUSH2 0xCDD JUMPI PUSH1 0x0 DUP1 REVERT JUMPDEST DUP2 CALLDATALOAD PUSH8 0xFFFFFFFFFFFFFFFF DUP1 DUP3 GT ISZERO PUSH2 0xCF8 JUMPI PUSH2 0xCF8 PUSH2 0xCB6 JUMP JUMPDEST PUSH1 0x40 MLOAD PUSH1 0x1F DUP4 ADD PUSH1 0x1F NOT SWAP1 DUP2 AND PUSH1 0x3F ADD AND DUP2 ADD SWAP1 DUP3 DUP3 GT DUP2 DUP4 LT OR ISZERO PUSH2 0xD20 JUMPI PUSH2 0xD20 PUSH2 0xCB6 JUMP JUMPDEST DUP2 PUSH1 0x40 MSTORE DUP4 DUP2 MSTORE DUP7 PUSH1 0x20 DUP6 DUP9 ADD ADD GT ISZERO PUSH2 0xD39 JUMPI PUSH1 0x0 DUP1 REVERT JUMPDEST DUP4 PUSH1 0x20 DUP8 ADD PUSH1 0x20 DUP4 ADD CALLDATACOPY PUSH1 0x0 PUSH1 0x20 DUP6 DUP4 ADD ADD MSTORE DUP1 SWAP5 POP POP POP POP POP SWAP3 SWAP2 POP POP JUMP JUMPDEST PUSH1 0x0 DUP1 PUSH1 0x0 DUP1 PUSH1 0x0 DUP1 PUSH1 0xC0 DUP8 DUP10 SUB SLT ISZERO PUSH2 0xD72 JUMPI PUSH1 0x0 DUP1 REVERT JUMPDEST DUP7 CALLDATALOAD PUSH1 0x1 PUSH1 0x1 PUSH1 0xA0 SHL SUB DUP2 AND DUP2 EQ PUSH2 0xD89 JUMPI PUSH1 0x0 DUP1 REVERT JUMPDEST SWAP6 POP PUSH1 0x20 DUP8 ADD CALLDATALOAD PUSH8 0xFFFFFFFFFFFFFFFF DUP1 DUP3 GT ISZERO PUSH2 0xDA6 JUMPI PUSH1 0x0 DUP1 REVERT JUMPDEST PUSH2 0xDB2 DUP11 DUP4 DUP12 ADD PUSH2 0xCCC JUMP JUMPDEST SWAP7 POP PUSH1 0x40 DUP10 ADD CALLDATALOAD SWAP2 POP DUP1 DUP3 GT ISZERO PUSH2 0xDC8 JUMPI PUSH1 0x0 DUP1 REVERT JUMPDEST PUSH2 0xDD4 DUP11 DUP4 DUP12 ADD PUSH2 0xCCC JUMP JUMPDEST SWAP6 POP PUSH1 0x60 DUP10 ADD CALLDATALOAD SWAP5 POP PUSH1 0x80 DUP10 ADD CALLDATALOAD SWAP4 POP PUSH1 0xA0 DUP10 ADD CALLDATALOAD SWAP2 POP DUP1 DUP3 GT ISZERO PUSH2 0xDF8 JUMPI PUSH1 0x0 DUP1 REVERT JUMPDEST POP PUSH2 0xE05 DUP10 DUP3 DUP11 ADD PUSH2 0xCCC JUMP JUMPDEST SWAP2 POP POP SWAP3 SWAP6 POP SWAP3 SWAP6 POP SWAP3 SWAP6 JUMP JUMPDEST PUSH1 0x1 DUP2 DUP2 SHR SWAP1 DUP3 AND DUP1 PUSH2 0xE26 JUMPI PUSH1 0x7F DUP3 AND SWAP2 POP JUMPDEST PUSH1 0x20 DUP3 LT DUP2 EQ ISZERO PUSH2 0x792 JUMPI PUSH4 0x4E487B71 PUSH1 0xE0 SHL PUSH1 0x0 MSTORE PUSH1 0x22 PUSH1 0x4 MSTORE PUSH1 0x24 PUSH1 0x0 REVERT JUMPDEST PUSH4 0x4E487B71 PUSH1 0xE0 SHL PUSH1 0x0 MSTORE PUSH1 0x32 PUSH1 0x4 MSTORE PUSH1 0x24 PUSH1 0x0 REVERT JUMPDEST PUSH4 0x4E487B71 PUSH1 0xE0 SHL PUSH1 0x0 MSTORE PUSH1 0x11 PUSH1 0x4 MSTORE PUSH1 0x24 PUSH1 0x0 REVERT JUMPDEST PUSH1 0x0 PUSH1 0x0 NOT DUP3 EQ ISZERO PUSH2 0xE87 JUMPI PUSH2 0xE87 PUSH2 0xE5D JUMP JUMPDEST POP PUSH1 0x1 ADD SWAP1 JUMP JUMPDEST PUSH1 0x0 DUP3 DUP3 LT ISZERO PUSH2 0xEA0 JUMPI PUSH2 0xEA0 PUSH2 0xE5D JUMP JUMPDEST POP SUB SWAP1 JUMP JUMPDEST PUSH1 0x0 DUP3 NOT DUP3 GT ISZERO PUSH2 0xEB8 JUMPI PUSH2 0xEB8 PUSH2 0xE5D JUMP JUMPDEST POP ADD SWAP1 JUMP INVALID LOG2 PUSH5 0x6970667358 0x22 SLT KECCAK256 SWAP1 0xCF PUSH6 0x8EB414C2AB61 PUSH13 0x4956BEC49DE961B5B381F8AE30 SWAP15 MSIZE 0xC9 SWAP7 LOG2 0x1F PUSH10 0x3E0364736F6C63430008 MULMOD STOP CALLER "},"methodIdentifiers":{"campaigns(uint256)":"141961bc","createCampaign(address,string,string,uint256,uint256,string)":"9943e3a1","donateToCompaign(uint256)":"ae73c8f0","getCampaign()":"236b8e3a","getDonators(uint256)":"0fa91fa9","numberOfCompaigns()":"de4f8818"}}}}}